S00E0000426C696E6B792E73726563AD
S11300000C9434000C943E000C943E000C943E007E
S11300100C943E000C943E000C943E000C943E0064
S11300200C943E000C943E000C943E000C943E0054
S11300300C943E000C943E000C943E000C943E0044
S11300400C943E000C943E000C943E000C943E0034
S11300500C943E000C943E000C943E000C943E0024
S11300600C943E000C943E0011241FBECFEFD8E048
S1130070DEBFCDBF0E9440000C9452000C940000DF
S11300808FEF8AB98FEF8BB98FE39CE90197F1F772
S113009000C000001BB88FE39CE90197F1F700C092
S10B00A00000F0CFF894FFCF3B
S9030000FC
