:100000000C9434000C943E000C943E000C943E0082
:100010000C943E000C943E000C943E000C943E0068
:100020000C943E000C943E000C943E000C943E0058
:100030000C943E000C943E000C943E000C943E0048
:100040000C943E000C943E000C943E000C943E0038
:100050000C943E000C943E000C943E000C943E0028
:100060000C943E000C943E0011241FBECFEFD8E04C
:10007000DEBFCDBF0E94A7000C94B5000C94000019
:10008000982F907F9BB995B1946095B995B19D7F5C
:1000900095B995B19E7F95B9EFE9FFE03197F1F7FA
:1000A00000C0000095B19B7F95B9F0E18F9FC00122
:1000B00011248BB985B1846085B985B18D7F85B9EF
:1000C00085B18E7F85B98FE99FE00197F1F700C078
:1000D000000085B18B7F85B90895982F907F9BB9DB
:1000E00095B1946095B995B19D7F95B995B19160A1
:1000F00095B9EFE3FCE93197F1F700C0000095B145
:100100009B7F95B9F0E18F9FC00111248BB985B118
:10011000846085B985B18D7F85B985B1816085B9E8
:100120008FE39CE90197F1F700C0000085B18B7F58
:1001300085B9089588E30E94400086E00E9440004F
:100140008CE00E94400081E00E944000089580EF12
:100150008AB984B1876084B90E949A0080E80E94BD
:0E016000400081E60E946D00F9CFF894FFCFB9
:00000001FF
