S00B00004C63642E7372656306
S11300000C9434000C9449000C9449000C9449005D
S11300100C9449000C9449000C9449000C94490038
S11300200C9449000C9449000C9449000C94490028
S11300300C9449000C9449000C9449000C94490018
S11300400C9449000C9449000C9449000C94490008
S11300500C9449000C9449000C9449000C944900F8
S11300600C9449000C94490011241FBECFEFD8E032
S1130070DEBFCDBF11E0A0E0B1E0ECE3F1E002C0EF
S113008005900D92A830B107D9F70E948D000C9409
S11300909C000C9400008BB985B1816085B985B151
S11300A08D7F85B985B1846085B98FE99FE001971B
S11300B0F1F700C0000085B18B7F85B908958BB935
S11300C085B18E7F85B985B18D7F85B985B1846011
S11300D085B98FE99FE00197F1F700C0000085B171
S11300E08B7F85B90895CF93DF93EC0103C02196EC
S11300F00E944B0088818111FACFDF91CF9108953E
S113010088E30E945F0086E00E945F008CE00E940A
S11301105F0081E00E945F0008958FEF8AB984B187
S1130120876084B90E94800080E80E945F0080E0BC
S10F013091E00E947300F8CFF894FFCF18
S10B013C726974657368000028
S9030000FC
